{
  "contractName": "Building",
  "abi": [
    {
      "inputs": [
        {
          "name": "num_units",
          "type": "uint256"
        },
        {
          "name": "price",
          "type": "uint256"
        }
      ],
      "payable": false,
      "stateMutability": "nonpayable",
      "type": "constructor"
    },
    {
      "payable": true,
      "stateMutability": "payable",
      "type": "fallback"
    },
    {
      "anonymous": false,
      "inputs": [
        {
          "indexed": false,
          "name": "_to",
          "type": "address"
        },
        {
          "indexed": false,
          "name": "amount",
          "type": "uint256"
        }
      ],
      "name": "RefundCompleted",
      "type": "event"
    },
    {
      "anonymous": false,
      "inputs": [
        {
          "indexed": false,
          "name": "_id",
          "type": "uint256"
        },
        {
          "indexed": false,
          "name": "_by",
          "type": "address"
        },
        {
          "indexed": false,
          "name": "price",
          "type": "uint256"
        }
      ],
      "name": "UnitBought",
      "type": "event"
    },
    {
      "anonymous": false,
      "inputs": [
        {
          "indexed": false,
          "name": "_id",
          "type": "uint256"
        },
        {
          "indexed": false,
          "name": "owner",
          "type": "address"
        },
        {
          "indexed": false,
          "name": "price",
          "type": "uint256"
        }
      ],
      "name": "UnitListed",
      "type": "event"
    },
    {
      "constant": false,
      "inputs": [
        {
          "name": "id",
          "type": "uint256"
        }
      ],
      "name": "buy",
      "outputs": [
        {
          "name": "",
          "type": "uint256"
        }
      ],
      "payable": true,
      "stateMutability": "payable",
      "type": "function"
    },
    {
      "constant": false,
      "inputs": [
        {
          "name": "id",
          "type": "uint256"
        },
        {
          "name": "price",
          "type": "uint256"
        }
      ],
      "name": "list",
      "outputs": [
        {
          "name": "",
          "type": "uint256"
        }
      ],
      "payable": false,
      "stateMutability": "nonpayable",
      "type": "function"
    },
    {
      "constant": false,
      "inputs": [
        {
          "name": "id",
          "type": "uint256"
        }
      ],
      "name": "unlist",
      "outputs": [
        {
          "name": "",
          "type": "uint256"
        }
      ],
      "payable": false,
      "stateMutability": "nonpayable",
      "type": "function"
    },
    {
      "constant": false,
      "inputs": [],
      "name": "refund",
      "outputs": [],
      "payable": true,
      "stateMutability": "payable",
      "type": "function"
    },
    {
      "constant": true,
      "inputs": [
        {
          "name": "_id",
          "type": "uint256"
        }
      ],
      "name": "getOwner",
      "outputs": [
        {
          "name": "",
          "type": "address"
        }
      ],
      "payable": false,
      "stateMutability": "view",
      "type": "function"
    },
    {
      "constant": true,
      "inputs": [
        {
          "name": "_id",
          "type": "uint256"
        }
      ],
      "name": "isForSale",
      "outputs": [
        {
          "name": "",
          "type": "bool"
        }
      ],
      "payable": false,
      "stateMutability": "view",
      "type": "function"
    },
    {
      "constant": true,
      "inputs": [
        {
          "name": "_id",
          "type": "uint256"
        }
      ],
      "name": "getPrice",
      "outputs": [
        {
          "name": "",
          "type": "uint256"
        }
      ],
      "payable": false,
      "stateMutability": "view",
      "type": "function"
    },
    {
      "constant": true,
      "inputs": [
        {
          "name": "_id",
          "type": "uint256"
        }
      ],
      "name": "getUnit",
      "outputs": [
        {
          "name": "id",
          "type": "uint256"
        },
        {
          "name": "price",
          "type": "uint256"
        },
        {
          "name": "for_sale",
          "type": "bool"
        },
        {
          "name": "owner",
          "type": "address"
        }
      ],
      "payable": false,
      "stateMutability": "view",
      "type": "function"
    },
    {
      "constant": true,
      "inputs": [],
      "name": "getNumUnits",
      "outputs": [
        {
          "name": "",
          "type": "uint256"
        }
      ],
      "payable": false,
      "stateMutability": "view",
      "type": "function"
    },
    {
      "constant": false,
      "inputs": [],
      "name": "lock",
      "outputs": [],
      "payable": false,
      "stateMutability": "nonpayable",
      "type": "function"
    },
    {
      "constant": false,
      "inputs": [],
      "name": "unlock",
      "outputs": [],
      "payable": false,
      "stateMutability": "nonpayable",
      "type": "function"
    },
    {
      "constant": false,
      "inputs": [],
      "name": "kill",
      "outputs": [],
      "payable": false,
      "stateMutability": "nonpayable",
      "type": "function"
    }
  ],
  "bytecode": "0x608060405234801561001057600080fd5b50604051604080611f798339810180604052810190808051906020019092919080519060200190929190505050600080821115156100dc576040517f08c379a00000000000000000000000000000000000000000000000000000000081526004018080602001828103825260238152602001807f5072696365206e6565647320746f20626520686967686572207468616e20302081526020017f455448000000000000000000000000000000000000000000000000000000000081525060400191505060405180910390fd5b60008311151561017a576040517f08c379a00000000000000000000000000000000000000000000000000000000081526004018080602001828103825260258152602001807f556e6974206e756d626572206e6565647320746f20626520686967686572207481526020017f68616e203000000000000000000000000000000000000000000000000000000081525060400191505060405180910390fd5b610100831015156101f3576040517f08c379a000000000000000000000000000000000000000000000000000000000815260040180806020018281038252601e8152602001807f556e697473206e65656420746f206265206c657373207468616e20323536000081525060200191505060405180910390fd5b336000806101000a81548173ffffffffffffffffffffffffffffffffffffffff021916908373ffffffffffffffffffffffffffffffffffffffff160217905550826001819055506000600360006101000a81548160ff021916908315150217905550600090505b828110156103805760046080604051908101604052808381526020016000809054906101000a900473ffffffffffffffffffffffffffffffffffffffff1673ffffffffffffffffffffffffffffffffffffffff168152602001600115158152602001670de0b6b3a76400008502815250908060018154018082558091505090600182039060005260206000209060030201600090919290919091506000820151816000015560208201518160010160006101000a81548173ffffffffffffffffffffffffffffffffffffffff021916908373ffffffffffffffffffffffffffffffffffffffff16021790555060408201518160010160146101000a81548160ff02191690831515021790555060608201518160020155505050808060010191505061025a565b505050611be7806103926000396000f3006080604052600436106100ba576000357c0100000000000000000000000000000000000000000000000000000000900463ffffffff1680631655bfbe146100bc57806341c0e1b51461014257806350fd736714610159578063590e1ae3146101a45780638546d002146101ae578063a69df4b5146101f3578063bf5a4dd31461020a578063c41a360a1461024b578063d1794dff146102b8578063d96a094a146102e3578063e757223014610317578063f83d08ba14610358575b005b3480156100c857600080fd5b506100e76004803603810190808035906020019092919050505061036f565b60405180858152602001848152602001831515151581526020018273ffffffffffffffffffffffffffffffffffffffff1673ffffffffffffffffffffffffffffffffffffffff16815260200194505050505060405180910390f35b34801561014e57600080fd5b50610157610400565b005b34801561016557600080fd5b5061018e60048036038101908080359060200190929190803590602001909291905050506104fe565b6040518082815260200191505060405180910390f35b6101ac610902565b005b3480156101ba57600080fd5b506101d960048036038101908080359060200190929190505050610b83565b604051808215151515815260200191505060405180910390f35b3480156101ff57600080fd5b50610208610cbf565b005b34801561021657600080fd5b5061023560048036038101908080359060200190929190505050610e2b565b6040518082815260200191505060405180910390f35b34801561025757600080fd5b5061027660048036038101908080359060200190929190505050611103565b604051808273ffffffffffffffffffffffffffffffffffffffff1673ffffffffffffffffffffffffffffffffffffffff16815260200191505060405180910390f35b3480156102c457600080fd5b506102cd611252565b6040518082815260200191505060405180910390f35b6103016004803603810190808035906020019092919050505061125f565b6040518082815260200191505060405180910390f35b34801561032357600080fd5b506103426004803603810190808035906020019092919050505061189c565b6040518082815260200191505060405180910390f35b34801561036457600080fd5b5061036d611a4f565b005b60008060008061037e85611103565b905060048581548110151561038f57fe5b9060005260206000209060030201600001546004868154811015156103b057fe5b9060005260206000209060030201600201546004878154811015156103d157fe5b906000526020600020906003020160010160149054906101000a900460ff168393509350935093509193509193565b6000809054906101000a900473ffffffffffffffffffffffffffffffffffffffff1673ffffffffffffffffffffffffffffffffffffffff163373ffffffffffffffffffffffffffffffffffffffff161415156104c4576040517f08c379a00000000000000000000000000000000000000000000000000000000081526004018080602001828103825260138152602001807f53656e646572206973206e6f74206f776e65720000000000000000000000000081525060200191505060405180910390fd5b6000809054906101000a900473ffffffffffffffffffffffffffffffffffffffff1673ffffffffffffffffffffffffffffffffffffffff16ff5b6000826001548110151561057a576040517f08c379a00000000000000000000000000000000000000000000000000000000081526004018080602001828103825260138152602001807f556e697420646f6573206e6f742065786973740000000000000000000000000081525060200191505060405180910390fd5b60018460011515821515141561063a573373ffffffffffffffffffffffffffffffffffffffff166105aa82611103565b73ffffffffffffffffffffffffffffffffffffffff16141515610635576040517f08c379a00000000000000000000000000000000000000000000000000000000081526004018080602001828103825260138152602001807f53656e646572206973206e6f74206f776e65720000000000000000000000000081525060200191505060405180910390fd5b6106e7565b3373ffffffffffffffffffffffffffffffffffffffff1661065a82611103565b73ffffffffffffffffffffffffffffffffffffffff16141515156106e6576040517f08c379a000000000000000000000000000000000000000000000000000000000815260040180806020018281038252600f8152602001807f53656e646572206973206f776e6572000000000000000000000000000000000081525060200191505060405180910390fd5b5b60001515600360009054906101000a900460ff161515141515610772576040517f08c379a00000000000000000000000000000000000000000000000000000000081526004018080602001828103825260128152602001807f436f6e7472616374206973206c6f636b6564000000000000000000000000000081525060200191505060405180910390fd5b6000151560048781548110151561078557fe5b906000526020600020906003020160010160149054906101000a900460ff16151514151561081b576040517f08c379a00000000000000000000000000000000000000000000000000000000081526004018080602001828103825260158152602001807f556e697420616c726561647920666f722073616c65000000000000000000000081525060200191505060405180910390fd5b600160048781548110151561082c57fe5b906000526020600020906003020160010160146101000a81548160ff021916908315150217905550670de0b6b3a7640000850260048781548110151561086e57fe5b9060005260206000209060030201600201819055507f11ec3c1d9ca70a2b3ee49259f747aa3711049945079aaf12cd11575c56f39f4f863387604051808481526020018373ffffffffffffffffffffffffffffffffffffffff1673ffffffffffffffffffffffffffffffffffffffff168152602001828152602001935050505060405180910390a185935050505092915050565b6000801515600360009054906101000a900460ff16151514151561098e576040517f08c379a00000000000000000000000000000000000000000000000000000000081526004018080602001828103825260128152602001807f436f6e7472616374206973206c6f636b6564000000000000000000000000000081525060200191505060405180910390fd5b336000600260008373ffffffffffffffffffffffffffffffffffffffff1673ffffffffffffffffffffffffffffffffffffffff16815260200190815260200160002054111515610a46576040517f08c379a00000000000000000000000000000000000000000000000000000000081526004018080602001828103825260148152602001807f4e6f20726566756e647320617661696c61626c6500000000000000000000000081525060200191505060405180910390fd5b600260003373ffffffffffffffffffffffffffffffffffffffff1673ffffffffffffffffffffffffffffffffffffffff1681526020019081526020016000205491506000600260003373ffffffffffffffffffffffffffffffffffffffff1673ffffffffffffffffffffffffffffffffffffffff168152602001908152602001600020819055503373ffffffffffffffffffffffffffffffffffffffff166108fc839081150290604051600060405180830381858888f19350505050158015610b13573d6000803e3d6000fd5b507fe965cbc0332dccc3c0a23cab3bcc47b60e62d1df738878693bbfa4bdc84685df3383604051808373ffffffffffffffffffffffffffffffffffffffff1673ffffffffffffffffffffffffffffffffffffffff1681526020018281526020019250505060405180910390a15050565b6000801515600360009054906101000a900460ff161515141515610c0f576040517f08c379a00000000000000000000000000000000000000000000000000000000081526004018080602001828103825260128152602001807f436f6e7472616374206973206c6f636b6564000000000000000000000000000081525060200191505060405180910390fd5b8160015481101515610c89576040517f08c379a00000000000000000000000000000000000000000000000000000000081526004018080602001828103825260138152602001807f556e697420646f6573206e6f742065786973740000000000000000000000000081525060200191505060405180910390fd5b600483815481101515610c9857fe5b906000526020600020906003020160010160149054906101000a900460ff16915050919050565b6000809054906101000a900473ffffffffffffffffffffffffffffffffffffffff1673ffffffffffffffffffffffffffffffffffffffff163373ffffffffffffffffffffffffffffffffffffffff16141515610d83576040517f08c379a00000000000000000000000000000000000000000000000000000000081526004018080602001828103825260138152602001807f53656e646572206973206e6f74206f776e65720000000000000000000000000081525060200191505060405180910390fd5b60011515600360009054906101000a900460ff161515141515610e0e576040517f08c379a000000000000000000000000000000000000000000000000000000000815260040180806020018281038252601c8152602001807f436f6e747261637420697320616c726561647920756e6c6f636b65640000000081525060200191505060405180910390fd5b6000600360006101000a81548160ff021916908315150217905550565b60008160015481101515610ea7576040517f08c379a00000000000000000000000000000000000000000000000000000000081526004018080602001828103825260138152602001807f556e697420646f6573206e6f742065786973740000000000000000000000000081525060200191505060405180910390fd5b600183600115158215151415610f67573373ffffffffffffffffffffffffffffffffffffffff16610ed782611103565b73ffffffffffffffffffffffffffffffffffffffff16141515610f62576040517f08c379a00000000000000000000000000000000000000000000000000000000081526004018080602001828103825260138152602001807f53656e646572206973206e6f74206f776e65720000000000000000000000000081525060200191505060405180910390fd5b611014565b3373ffffffffffffffffffffffffffffffffffffffff16610f8782611103565b73ffffffffffffffffffffffffffffffffffffffff1614151515611013576040517f08c379a000000000000000000000000000000000000000000000000000000000815260040180806020018281038252600f8152602001807f53656e646572206973206f776e6572000000000000000000000000000000000081525060200191505060405180910390fd5b5b846001151560048281548110151561102857fe5b906000526020600020906003020160010160149054906101000a900460ff1615151415156110be576040517f08c379a00000000000000000000000000000000000000000000000000000000081526004018080602001828103825260148152602001807f556e6974206973206e6f7420666f722073616c6500000000000000000000000081525060200191505060405180910390fd5b60006004878154811015156110cf57fe5b906000526020600020906003020160010160146101000a81548160ff02191690831515021790555085945050505050919050565b6000801515600360009054906101000a900460ff16151514151561118f576040517f08c379a00000000000000000000000000000000000000000000000000000000081526004018080602001828103825260128152602001807f436f6e7472616374206973206c6f636b6564000000000000000000000000000081525060200191505060405180910390fd5b8160015481101515611209576040517f08c379a00000000000000000000000000000000000000000000000000000000081526004018080602001828103825260138152602001807f556e697420646f6573206e6f742065786973740000000000000000000000000081525060200191505060405180910390fd5b60048381548110151561121857fe5b906000526020600020906003020160010160009054906101000a900473ffffffffffffffffffffffffffffffffffffffff16915050919050565b6000600480549050905090565b600080600083600154811015156112de576040517f08c379a00000000000000000000000000000000000000000000000000000000081526004018080602001828103825260138152602001807f556e697420646f6573206e6f742065786973740000000000000000000000000081525060200191505060405180910390fd5b84600115156004828154811015156112f257fe5b906000526020600020906003020160010160149054906101000a900460ff161515141515611388576040517f08c379a00000000000000000000000000000000000000000000000000000000081526004018080602001828103825260148152602001807f556e6974206973206e6f7420666f722073616c6500000000000000000000000081525060200191505060405180910390fd5b600086600115158215151415611448573373ffffffffffffffffffffffffffffffffffffffff166113b882611103565b73ffffffffffffffffffffffffffffffffffffffff16141515611443576040517f08c379a00000000000000000000000000000000000000000000000000000000081526004018080602001828103825260138152602001807f53656e646572206973206e6f74206f776e65720000000000000000000000000081525060200191505060405180910390fd5b6114f5565b3373ffffffffffffffffffffffffffffffffffffffff1661146882611103565b73ffffffffffffffffffffffffffffffffffffffff16141515156114f4576040517f08c379a000000000000000000000000000000000000000000000000000000000815260040180806020018281038252600f8152602001807f53656e646572206973206f776e6572000000000000000000000000000000000081525060200191505060405180910390fd5b5b60001515600360009054906101000a900460ff161515141515611580576040517f08c379a00000000000000000000000000000000000000000000000000000000081526004018080602001828103825260128152602001807f436f6e7472616374206973206c6f636b6564000000000000000000000000000081525060200191505060405180910390fd5b60048881548110151561158f57fe5b9060005260206000209060030201600201543410151515611618576040517f08c379a00000000000000000000000000000000000000000000000000000000081526004018080602001828103825260178152602001807f4e6f7420656e6f7567682076616c756520746f2062757900000000000000000081525060200191505060405180910390fd5b60048881548110151561162757fe5b906000526020600020906003020160010160009054906101000a900473ffffffffffffffffffffffffffffffffffffffff16955060048881548110151561166a57fe5b906000526020600020906003020160020154945060048881548110151561168d57fe5b906000526020600020906003020160020154600260008873ffffffffffffffffffffffffffffffffffffffff1673ffffffffffffffffffffffffffffffffffffffff168152602001908152602001600020600082825401925050819055506004888154811015156116fa57fe5b9060005260206000209060030201600201543411156117835760048881548110151561172257fe5b9060005260206000209060030201600201543403600260003373ffffffffffffffffffffffffffffffffffffffff1673ffffffffffffffffffffffffffffffffffffffff168152602001908152602001600020600082825401925050819055505b3360048981548110151561179357fe5b906000526020600020906003020160010160006101000a81548173ffffffffffffffffffffffffffffffffffffffff021916908373ffffffffffffffffffffffffffffffffffffffff16021790555060006004898154811015156117f357fe5b906000526020600020906003020160010160146101000a81548160ff0219169083151502179055507f77a34f26284a143a3c3f56506f5254ee995a8874b6579efc0ce17bb4d6e1b026883387604051808481526020018373ffffffffffffffffffffffffffffffffffffffff1673ffffffffffffffffffffffffffffffffffffffff168152602001828152602001935050505060405180910390a1879650505050505050919050565b6000801515600360009054906101000a900460ff161515141515611928576040517f08c379a00000000000000000000000000000000000000000000000000000000081526004018080602001828103825260128152602001807f436f6e7472616374206973206c6f636b6564000000000000000000000000000081525060200191505060405180910390fd5b81600154811015156119a2576040517f08c379a00000000000000000000000000000000000000000000000000000000081526004018080602001828103825260138152602001807f556e697420646f6573206e6f742065786973740000000000000000000000000081525060200191505060405180910390fd5b600115156119af84610b83565b1515141515611a26576040517f08c379a00000000000000000000000000000000000000000000000000000000081526004018080602001828103825260148152602001807f556e6974206973206e6f7420666f722073616c6500000000000000000000000081525060200191505060405180910390fd5b600483815481101515611a3557fe5b906000526020600020906003020160020154915050919050565b6000809054906101000a900473ffffffffffffffffffffffffffffffffffffffff1673ffffffffffffffffffffffffffffffffffffffff163373ffffffffffffffffffffffffffffffffffffffff16141515611b13576040517f08c379a00000000000000000000000000000000000000000000000000000000081526004018080602001828103825260138152602001807f53656e646572206973206e6f74206f776e65720000000000000000000000000081525060200191505060405180910390fd5b60001515600360009054906101000a900460ff161515141515611b9e576040517f08c379a000000000000000000000000000000000000000000000000000000000815260040180806020018281038252601a8152602001807f436f6e747261637420697320616c7265616479206c6f636b656400000000000081525060200191505060405180910390fd5b6001600360006101000a81548160ff0219169083151502179055505600a165627a7a723058201dd91dce539681866ad85e673a7d805919e533dac3156134ceb9af24f5cba6450029",
  "source": "pragma solidity ^0.4.17;\n\ncontract Building {\n\n    address creator;\n    uint total_units;\n    mapping (address => uint) refunds;\n    bool locked;\n    \n    struct Unit {\n        uint id;\n        address owner;\n        bool forSale;\n        uint price; // price in ether\n    }\n\n    Unit[] units;\n\n    modifier isCreator() {\n        require(msg.sender == creator, \"Sender is not owner\");\n        _;\n    }\n\n    modifier isOwner(bool status, uint _id) {\n        if (status == true){\n            require(getOwner(_id) == msg.sender, \"Sender is not owner\");\n        }\n        else {\n            require(getOwner(_id) != msg.sender, \"Sender is owner\");\n        }\n        _;\n    }\n\n    modifier notLocked() {\n        require(locked == false, \"Contract is locked\");\n        _;\n    }\n\n    modifier fundsAvailable(address sender) {\n        require(refunds[sender] > 0, \"No refunds available\");\n        _;\n    }\n    modifier forSale(uint _id) {\n        require(units[_id].forSale == true, \"Unit is not for sale\");\n        _;\n    }\n\n    modifier unitExists(uint _id){\n        require(_id < total_units, \"Unit does not exist\");\n        _;\n    }\n    \n    event RefundCompleted(address _to, uint amount);\n    event UnitBought(uint _id, address _by, uint price);\n    event UnitListed(uint _id, address owner, uint price);\n    \n    \n    constructor(uint num_units, uint price) public {\n        require (price > 0, \"Price needs to be higher than 0 ETH\");\n        require (num_units > 0, \"Unit number needs to be higher than 0\");\n        require (num_units < 256, \"Units need to be less than 256\");\n        creator = msg.sender;\n        total_units = num_units;\n        locked = false;\n        \n        for (uint i = 0; i < num_units; i++){\n            units.push(Unit(i, creator, true, (price * 1 ether)));\n        }\n    }\n\n    function buy(uint id) public payable \n        unitExists(id)\n        forSale(id)\n        isOwner(false, id)\n        notLocked \n        returns (uint){\n        require (msg.value >= units[id].price, \"Not enough value to buy\");\n        address current_owner = units[id].owner;\n        uint price = units[id].price;\n        \n        refunds[current_owner] += units[id].price;\n        if (msg.value > units[id].price) {\n            refunds[msg.sender] += (msg.value - units[id].price);\n        }\n        \n        units[id].owner = msg.sender;\n        units[id].forSale = false;\n        emit UnitBought(id, msg.sender, price);\n        return id;\n    }\n\n    function list(uint id, uint price) public \n        unitExists(id)\n        isOwner(true, id) \n        notLocked \n        returns (uint) {\n        // require(msg.sender == units[id].owner, \"User can list unit\");\n        require(units[id].forSale == false, \"Unit already for sale\");\n        units[id].forSale = true;\n        units[id].price = price * 1 ether;\n        emit UnitListed(id, msg.sender, price);\n        return id;\n    }\n\n    function unlist(uint id) public\n        unitExists(id)\n        isOwner(true, id)\n        forSale(id)\n        returns (uint){\n        units[id].forSale = false;\n        return id;\n    }\n\n    function refund() public payable \n        notLocked\n        fundsAvailable(msg.sender) {\n        uint amount = refunds[msg.sender];\n        refunds[msg.sender] = 0;\n        msg.sender.transfer(amount);\n        emit RefundCompleted(msg.sender, amount);\n    }\n    \n    function getOwner(uint _id) public view \n        notLocked\n        unitExists(_id)\n        returns(address) {\n        return units[_id].owner;\n    }\n    \n    function isForSale(uint _id) public view \n        notLocked\n        unitExists(_id)\n        returns(bool) {\n        return units[_id].forSale;\n    }\n    \n    function getPrice(uint _id) public view \n        notLocked \n        unitExists(_id)\n        returns(uint) {\n        require(isForSale(_id) == true, \"Unit is not for sale\");\n        return units[_id].price;\n    }\n\n    function getUnit(uint _id) public view \n    returns(uint id, uint price, bool for_sale, address owner) {\n        owner = getOwner(_id);\n        return (units[_id].id, units[_id].price, units[_id].forSale, owner);\n    }\n\n    function getNumUnits() public view\n    returns (uint){\n        return units.length;\n    }\n\n    function () public payable {\n\n    } \n\n    function lock () public isCreator  {\n        require(locked == false, \"Contract is already locked\");\n        locked = true;\n    }\n    \n    function unlock () public isCreator {\n        require(locked == true, \"Contract is already unlocked\");\n        locked = false;\n    }\n\n    function kill () public isCreator {\n        selfdestruct(creator);\n    }\n\n}",
  "sourcePath": "/Users/carlos/Code/eth1/building1/contracts/Building.sol",
  "compiler": {
    "name": "solc",
    "version": "0.4.24+commit.e67f0147.Emscripten.clang"
  },
  "schemaVersion": "2.0.0",
  "updatedAt": "2018-08-26T19:02:53.234Z"
}